{
  "contractName": "Migrations",
  "abi": [
    {
      "inputs": [],
      "stateMutability": "nonpayable",
      "type": "constructor"
    },
    {
      "inputs": [],
      "name": "last_completed_migration",
      "outputs": [
        {
          "internalType": "uint256",
          "name": "",
          "type": "uint256"
        }
      ],
      "stateMutability": "view",
      "type": "function",
      "constant": true
    },
    {
      "inputs": [],
      "name": "owner",
      "outputs": [
        {
          "internalType": "address",
          "name": "",
          "type": "address"
        }
      ],
      "stateMutability": "view",
      "type": "function",
      "constant": true
    },
    {
      "inputs": [
        {
          "internalType": "uint256",
          "name": "completed",
          "type": "uint256"
        }
      ],
      "name": "setCompleted",
      "outputs": [],
      "stateMutability": "nonpayable",
      "type": "function"
    }
  ],
  "bytecode": "0x608060405234801561001057600080fd5b50600080546001600160a01b0319163317905560fd806100316000396000f3fe6080604052348015600f57600080fd5b5060043610603c5760003560e01c8063445df0ac1460415780638da5cb5b146059578063fdacd57614607b575b600080fd5b60476097565b60408051918252519081900360200190f35b605f609d565b604080516001600160a01b039092168252519081900360200190f35b609560048036036020811015608f57600080fd5b503560ac565b005b60015481565b6000546001600160a01b031681565b6000546001600160a01b031633141560c45760018190555b5056fea2646970667358221220b31714ab51732401428373daa4b3d8aea03749d0355eb9c504eecee8ad9eadb264736f6c63430006000033",
  "source": "// SPDX-License-Identifier: MIT\npragma solidity >=0.4.21 <0.7.0;\n\ncontract Migrations {\n  address public owner;\n  uint public last_completed_migration;\n\n  modifier restricted() {\n    if (msg.sender == owner) _;\n  }\n\n  constructor() public {\n    owner = msg.sender;\n  }\n\n  function setCompleted(uint completed) public restricted {\n    last_completed_migration = completed;\n  }\n}",
  "sourcePath": "/Users/vinaypallegar/Desktop/localsite/blockchain-final-project/truffle/contracts/Migrations.sol",
  "compiler": {
    "name": "solc",
    "version": "0.6.0+commit.26b70077.Emscripten.clang"
  },
  "schemaVersion": "3.2.5",
  "updatedAt": "2020-11-25T05:57:55.066Z",
  "networkType": "ethereum",
  "devdoc": {
    "methods": {}
  },
  "userdoc": {
    "methods": {}
  }
}