{
  "contractName": "Voting",
  "abi": [
    {
      "inputs": [],
      "stateMutability": "nonpayable",
      "type": "constructor"
    },
    {
      "anonymous": false,
      "inputs": [
        {
          "indexed": true,
          "internalType": "address",
          "name": "previousOwner",
          "type": "address"
        },
        {
          "indexed": true,
          "internalType": "address",
          "name": "newOwner",
          "type": "address"
        }
      ],
      "name": "OwnershipTransferred",
      "type": "event"
    },
    {
      "anonymous": false,
      "inputs": [
        {
          "indexed": true,
          "internalType": "uint256",
          "name": "id",
          "type": "uint256"
        }
      ],
      "name": "candidateAdded",
      "type": "event"
    },
    {
      "anonymous": false,
      "inputs": [
        {
          "components": [
            {
              "internalType": "uint256",
              "name": "id",
              "type": "uint256"
            },
            {
              "internalType": "string",
              "name": "name",
              "type": "string"
            },
            {
              "internalType": "uint256",
              "name": "voteCount",
              "type": "uint256"
            },
            {
              "internalType": "bool",
              "name": "open",
              "type": "bool"
            }
          ],
          "indexed": false,
          "internalType": "struct Voting.Candidate",
          "name": "candidate",
          "type": "tuple"
        }
      ],
      "name": "candidateVisibilityChange",
      "type": "event"
    },
    {
      "anonymous": false,
      "inputs": [
        {
          "indexed": true,
          "internalType": "uint256",
          "name": "id",
          "type": "uint256"
        }
      ],
      "name": "votedEvent",
      "type": "event"
    },
    {
      "anonymous": false,
      "inputs": [
        {
          "indexed": false,
          "internalType": "address",
          "name": "voter",
          "type": "address"
        }
      ],
      "name": "voterAdded",
      "type": "event"
    },
    {
      "inputs": [
        {
          "internalType": "uint256",
          "name": "",
          "type": "uint256"
        }
      ],
      "name": "candidateLookup",
      "outputs": [
        {
          "internalType": "uint256",
          "name": "id",
          "type": "uint256"
        },
        {
          "internalType": "string",
          "name": "name",
          "type": "string"
        },
        {
          "internalType": "uint256",
          "name": "voteCount",
          "type": "uint256"
        },
        {
          "internalType": "bool",
          "name": "open",
          "type": "bool"
        }
      ],
      "stateMutability": "view",
      "type": "function",
      "constant": true
    },
    {
      "inputs": [],
      "name": "owner",
      "outputs": [
        {
          "internalType": "address",
          "name": "",
          "type": "address"
        }
      ],
      "stateMutability": "view",
      "type": "function",
      "constant": true
    },
    {
      "inputs": [],
      "name": "renounceOwnership",
      "outputs": [],
      "stateMutability": "nonpayable",
      "type": "function"
    },
    {
      "inputs": [],
      "name": "stopped",
      "outputs": [
        {
          "internalType": "bool",
          "name": "",
          "type": "bool"
        }
      ],
      "stateMutability": "view",
      "type": "function",
      "constant": true
    },
    {
      "inputs": [],
      "name": "totalCandidates",
      "outputs": [
        {
          "internalType": "uint256",
          "name": "",
          "type": "uint256"
        }
      ],
      "stateMutability": "view",
      "type": "function",
      "constant": true
    },
    {
      "inputs": [],
      "name": "totalVoters",
      "outputs": [
        {
          "internalType": "uint256",
          "name": "",
          "type": "uint256"
        }
      ],
      "stateMutability": "view",
      "type": "function",
      "constant": true
    },
    {
      "inputs": [],
      "name": "totalVotes",
      "outputs": [
        {
          "internalType": "uint256",
          "name": "",
          "type": "uint256"
        }
      ],
      "stateMutability": "view",
      "type": "function",
      "constant": true
    },
    {
      "inputs": [
        {
          "internalType": "address",
          "name": "newOwner",
          "type": "address"
        }
      ],
      "name": "transferOwnership",
      "outputs": [],
      "stateMutability": "nonpayable",
      "type": "function"
    },
    {
      "inputs": [
        {
          "internalType": "address",
          "name": "",
          "type": "address"
        }
      ],
      "name": "voterRegister",
      "outputs": [
        {
          "internalType": "string",
          "name": "voterName",
          "type": "string"
        },
        {
          "internalType": "address",
          "name": "voterAddress",
          "type": "address"
        },
        {
          "internalType": "bool",
          "name": "voted",
          "type": "bool"
        },
        {
          "internalType": "bool",
          "name": "exists",
          "type": "bool"
        },
        {
          "internalType": "uint256",
          "name": "choiceId",
          "type": "uint256"
        },
        {
          "internalType": "string",
          "name": "choice",
          "type": "string"
        },
        {
          "internalType": "uint256",
          "name": "timestamp",
          "type": "uint256"
        }
      ],
      "stateMutability": "view",
      "type": "function",
      "constant": true
    },
    {
      "inputs": [],
      "name": "kill",
      "outputs": [],
      "stateMutability": "nonpayable",
      "type": "function"
    },
    {
      "inputs": [
        {
          "internalType": "bool",
          "name": "_mode",
          "type": "bool"
        }
      ],
      "name": "changeEmergencyMode",
      "outputs": [],
      "stateMutability": "nonpayable",
      "type": "function"
    },
    {
      "inputs": [],
      "name": "checkIsOwner",
      "outputs": [
        {
          "internalType": "bool",
          "name": "",
          "type": "bool"
        }
      ],
      "stateMutability": "view",
      "type": "function",
      "constant": true
    },
    {
      "inputs": [
        {
          "internalType": "string",
          "name": "name",
          "type": "string"
        }
      ],
      "name": "addCandidate",
      "outputs": [],
      "stateMutability": "nonpayable",
      "type": "function"
    },
    {
      "inputs": [
        {
          "internalType": "uint256",
          "name": "_id",
          "type": "uint256"
        },
        {
          "internalType": "bool",
          "name": "_view",
          "type": "bool"
        }
      ],
      "name": "changeCandidateVisibility",
      "outputs": [
        {
          "components": [
            {
              "internalType": "uint256",
              "name": "id",
              "type": "uint256"
            },
            {
              "internalType": "string",
              "name": "name",
              "type": "string"
            },
            {
              "internalType": "uint256",
              "name": "voteCount",
              "type": "uint256"
            },
            {
              "internalType": "bool",
              "name": "open",
              "type": "bool"
            }
          ],
          "internalType": "struct Voting.Candidate",
          "name": "",
          "type": "tuple"
        }
      ],
      "stateMutability": "nonpayable",
      "type": "function"
    },
    {
      "inputs": [
        {
          "internalType": "address",
          "name": "_voterAddress",
          "type": "address"
        },
        {
          "internalType": "string",
          "name": "_voterName",
          "type": "string"
        }
      ],
      "name": "addVoter",
      "outputs": [],
      "stateMutability": "nonpayable",
      "type": "function"
    },
    {
      "inputs": [],
      "name": "getUserVoteAccessInfo",
      "outputs": [
        {
          "internalType": "bool",
          "name": "",
          "type": "bool"
        }
      ],
      "stateMutability": "view",
      "type": "function",
      "constant": true
    },
    {
      "inputs": [],
      "name": "getUserVotedInfo",
      "outputs": [
        {
          "internalType": "bool",
          "name": "",
          "type": "bool"
        },
        {
          "internalType": "uint256",
          "name": "",
          "type": "uint256"
        }
      ],
      "stateMutability": "view",
      "type": "function",
      "constant": true
    },
    {
      "inputs": [
        {
          "internalType": "uint256",
          "name": "id",
          "type": "uint256"
        },
        {
          "internalType": "string",
          "name": "choice",
          "type": "string"
        }
      ],
      "name": "doVote",
      "outputs": [
        {
          "internalType": "uint256",
          "name": "",
          "type": "uint256"
        }
      ],
      "stateMutability": "nonpayable",
      "type": "function"
    },
    {
      "inputs": [],
      "name": "viewAllCandidates",
      "outputs": [
        {
          "internalType": "string[]",
          "name": "",
          "type": "string[]"
        },
        {
          "internalType": "uint256[]",
          "name": "",
          "type": "uint256[]"
        }
      ],
      "stateMutability": "view",
      "type": "function",
      "constant": true
    },
    {
      "inputs": [],
      "name": "getAllCandidates",
      "outputs": [
        {
          "internalType": "string[]",
          "name": "",
          "type": "string[]"
        },
        {
          "internalType": "bool[]",
          "name": "",
          "type": "bool[]"
        },
        {
          "internalType": "uint256[]",
          "name": "",
          "type": "uint256[]"
        }
      ],
      "stateMutability": "view",
      "type": "function",
      "constant": true
    },
    {
      "inputs": [],
      "name": "getAllVoters",
      "outputs": [
        {
          "components": [
            {
              "internalType": "string",
              "name": "voterName",
              "type": "string"
            },
            {
              "internalType": "address",
              "name": "voterAddress",
              "type": "address"
            },
            {
              "internalType": "bool",
              "name": "voted",
              "type": "bool"
            },
            {
              "internalType": "bool",
              "name": "exists",
              "type": "bool"
            },
            {
              "internalType": "uint256",
              "name": "choiceId",
              "type": "uint256"
            },
            {
              "internalType": "string",
              "name": "choice",
              "type": "string"
            },
            {
              "internalType": "uint256",
              "name": "timestamp",
              "type": "uint256"
            }
          ],
          "internalType": "struct Voting.voter[]",
          "name": "",
          "type": "tuple[]"
        }
      ],
      "stateMutability": "view",
      "type": "function",
      "constant": true
    }
  ],
  "bytecode": "0x60806040526000805460ff60a01b19168155600181905560028190556003553480156200002b57600080fd5b506000620000416001600160e01b03620000d816565b600080546001600160a01b0319166001600160a01b0383169081178255604051929350917f8be0079c531659141344cd1fd0a4f28419497f9722a3daafe3b4186f6b6457e0908290a350620000d2336040518060400160405280600581526020017f41646d696e000000000000000000000000000000000000000000000000000000815250620000dd60201b60201c565b62000459565b335b90565b620000f06001600160e01b03620000d816565b6000546001600160a01b039081169116146200010b57600080fd5b6200011562000359565b8181526001600160a01b038316602080830182905260006040808501829052600160608601524260c0860152928152600582529190912082518051849362000162928492910190620003a3565b5060208281015160018301805460408601516060870151151575010000000000000000000000000000000000000000000260ff60a81b19911515740100000000000000000000000000000000000000000260ff60a01b196001600160a01b039096166001600160a01b0319909416939093179490941691909117169190911790556080830151600283015560a08301518051620002069260038501920190620003a3565b5060c0919091015160049182015580546001810182556000919091528151805183926005027f8a35acfbc15ff81a39ae7d344fd709f28e8600b4aa8c65c6b64bfe7fe36bd19b01916200025f91839160200190620003a3565b5060208281015160018301805460408601516060870151151575010000000000000000000000000000000000000000000260ff60a81b19911515740100000000000000000000000000000000000000000260ff60a01b196001600160a01b039096166001600160a01b0319909416939093179490941691909117169190911790556080830151600283015560a08301518051620003039260038501920190620003a3565b5060c091909101516004909101556003805460010190556040517fb9e5f9042e6c6eb94817f660cfa81afea9585e59d72bfc3348a2305cbd33e133906200034c90859062000445565b60405180910390a1505050565b6040518060e001604052806060815260200160006001600160a01b031681526020016000151581526020016000151581526020016000815260200160608152602001600081525090565b828054600181600116156101000203166002900490600052602060002090601f016020900481019282601f10620003e657805160ff191683800117855562000416565b8280016001018555821562000416579182015b8281111562000416578251825591602001919060010190620003f9565b506200042492915062000428565b5090565b620000da91905b808211156200042457600081556001016200042f565b6001600160a01b0391909116815260200190565b611d3880620004696000396000f3fe608060405234801561001057600080fd5b50600436106101375760003560e01c8063715018a6116100b85780638e877bf01161007c5780638e877bf014610249578063abff6e7a1461025f578063af15408714610282578063d82ff142146102a8578063d9e95a98146102b0578063f2fde38b146102c357610137565b8063715018a6146101f157806375f12b21146101f95780637e2c3f1e14610201578063860dc724146102215780638da5cb5b1461023457610137565b8063383ba4d5116100ff578063383ba4d5146101ae5780633866965c146101c457806341c0e1b5146101cc578063462e91ec146101d65780635f5300ff146101e957610137565b80630d15fd771461013c57806315eec2cd1461015a5780632b1bf3a11461016d5780632e6997fe1461018257806335bbe70e14610199575b600080fd5b6101446102d6565b6040516101519190611ca5565b60405180910390f35b610144610168366004611714565b6102dc565b6101756104cb565b60405161015191906119df565b61018a6104fc565b6040516101519392919061187f565b6101a1610712565b604051610151919061191b565b6101b6610906565b6040516101519291906118ed565b610144610afc565b6101d4610b02565b005b6101d46101e4366004611692565b610b5a565b610144610c26565b6101d4610c2c565b610175610c98565b61021461020f3660046116e5565b610ca8565b6040516101519190611b9f565b6101d461022f366004611676565b610e52565b61023c610e92565b604051610151919061186b565b610251610ea1565b6040516101519291906119ea565b61027261026d3660046116cd565b610ee8565b6040516101519493929190611cae565b6102956102903660046115ef565b610f9f565b60405161015197969594939291906119fa565b610175611109565b6101d46102be36600461161d565b611132565b6101d46102d13660046115ef565b611350565b60025481565b60008054600160a01b900460ff16156102f457600080fd5b336000908152600560205260409020546002600019610100600184161502019091160461033c5760405162461bcd60e51b815260040161033390611afc565b60405180910390fd5b60018054038411156103605760405162461bcd60e51b815260040161033390611acd565b33600090815260056020526040902060010154600160a01b900460ff161561039a5760405162461bcd60e51b815260040161033390611b23565b60008481526006602052604090206003015460ff166103cb5760405162461bcd60e51b815260040161033390611b5a565b336000908152600560205260409020546002600019610100600184161502019091160415801590610416575033600090815260056020526040902060010154600160a01b900460ff16155b156104855733600090815260056020526040902060018101805460ff60a01b1916600160a01b17905561044d9060030184846113f7565b503360009081526005602090815260408083206002908101889055878452600690925290912081018054600190810190915581540190555b60405184907ffff3c900d938d21d0990d786e819f29b8d05c1ef587b462b939609625b684b1690600090a250336000908152600560205260409020600201549392505050565b33600090815260056020526040812060010154600160a81b900460ff166104f35760006104f6565b60015b90505b90565b60608060606105096113f3565b6000546001600160a01b0390811691161461052357600080fd5b606060015460405190808252806020026020018201604052801561055b57816020015b60608152602001906001900390816105465790505b509050606060015460405190808252806020026020018201604052801561058c578160200160208202803883390190505b50905060606001546040519080825280602002602001820160405280156105bd578160200160208202803883390190505b50905060005b60015481101561070557600660008281526020019081526020016000206001018054600181600116156101000203166002900480601f0160208091040260200160405190810160405280929190818152602001828054600181600116156101000203166002900480156106775780601f1061064c57610100808354040283529160200191610677565b820191906000526020600020905b81548152906001019060200180831161065a57829003601f168201915b505050505084828151811061068857fe5b60200260200101819052506006600082815260200190815260200160002060030160009054906101000a900460ff168382815181106106c357fe5b91151560209283029190910182015260008281526006909152604090206002015482518390839081106106f257fe5b60209081029190910101526001016105c3565b5091945092509050909192565b606061071c6113f3565b6000546001600160a01b0390811691161461073657600080fd5b6004805480602002602001604051908101604052809291908181526020016000905b828210156108fd57600084815260209081902060408051600586029092018054600260018216156101009081026000190190921604601f81018690049095028401810190925260e08301848152929390928492909184918401828280156108005780601f106107d557610100808354040283529160200191610800565b820191906000526020600020905b8154815290600101906020018083116107e357829003601f168201915b50505091835250506001828101546001600160a01b038116602080850191909152600160a01b820460ff9081161515604080870191909152600160a81b9093041615156060850152600280860154608086015260038601805484516101009682161596909602600019011691909104601f810183900483028501830190935282845260a09094019391908301828280156108db5780601f106108b0576101008083540402835291602001916108db565b820191906000526020600020905b8154815290600101906020018083116108be57829003601f168201915b5050505050815260200160048201548152505081526020019060010190610758565b50505050905090565b6000546060908190600160a01b900460ff161561092257600080fd5b33600090815260056020526040902054600260001961010060018416150201909116046109615760405162461bcd60e51b815260040161033390611afc565b606060015460405190808252806020026020018201604052801561099957816020015b60608152602001906001900390816109845790505b50905060606001546040519080825280602002602001820160405280156109ca578160200160208202803883390190505b50905060005b600154811015610af25760008181526006602052604090206003015460ff1615610aea57600660008281526020019081526020016000206001018054600181600116156101000203166002900480601f016020809104026020016040519081016040528092919081815260200182805460018160011615610100020316600290048015610a9e5780601f10610a7357610100808354040283529160200191610a9e565b820191906000526020600020905b815481529060010190602001808311610a8157829003601f168201915b5050505050838281518110610aaf57fe5b60200260200101819052506006600082815260200190815260200160002060020154828281518110610add57fe5b6020026020010181815250505b6001016109d0565b5090925090509091565b60015481565b610b0a6113f3565b6000546001600160a01b03908116911614610b2457600080fd5b610b2c610e92565b6001600160a01b0316336001600160a01b03161415610b5857610b4d610e92565b6001600160a01b0316ff5b565b610b626113f3565b6000546001600160a01b03908116911614610b7c57600080fd5b6040805160808101825260018054808352602080840186815260008587018190526060860185905292835260068252949091208351815593518051939493610bcb938501929190910190611475565b5060408281015160028301556060909201516003909101805460ff19169115159190911790556001805481019081905590517f58b6df71f7457b483a796c1077e42ea827427ecccb2156d374fe8e03524ccdc590600090a250565b60035481565b610c346113f3565b6000546001600160a01b03908116911614610c4e57600080fd5b600080546040516001600160a01b03909116907f8be0079c531659141344cd1fd0a4f28419497f9722a3daafe3b4186f6b6457e0908390a3600080546001600160a01b0319169055565b600054600160a01b900460ff1681565b610cb06114e3565b610cb86113f3565b6000546001600160a01b03908116911614610cd257600080fd5b600083815260066020526040902060019081015460029181161561010002600019011604610d125760405162461bcd60e51b815260040161033390611aa0565b6000838152600660205260409081902060038101805460ff191685151517905590517f8b9e441bb50cbf9d4f4752cb1913f68f17e6c497dce16564a899fcdac12a41ee91610d5f91611be6565b60405180910390a16006600084815260200190815260200160002060405180608001604052908160008201548152602001600182018054600181600116156101000203166002900480601f016020809104026020016040519081016040528092919081815260200182805460018160011615610100020316600290048015610e285780601f10610dfd57610100808354040283529160200191610e28565b820191906000526020600020905b815481529060010190602001808311610e0b57829003601f168201915b50505091835250506002820154602082015260039091015460ff1615156040909101529392505050565b610e5a6113f3565b6000546001600160a01b03908116911614610e7457600080fd5b60008054911515600160a01b0260ff60a01b19909216919091179055565b6000546001600160a01b031690565b336000908152600560205260408120600101548190600160a01b900460ff1680610ecc576000610ee0565b336000908152600560205260409020600201545b915091509091565b6006602090815260009182526040918290208054600180830180548651600293821615610100026000190190911692909204601f810186900486028301860190965285825291949293909290830182828015610f855780601f10610f5a57610100808354040283529160200191610f85565b820191906000526020600020905b815481529060010190602001808311610f6857829003601f168201915b50505050600283015460039093015491929160ff16905084565b60056020908152600091825260409182902080548351601f600260001961010060018616150201909316929092049182018490048402810184019094528084529092918391908301828280156110365780601f1061100b57610100808354040283529160200191611036565b820191906000526020600020905b81548152906001019060200180831161101957829003601f168201915b505050600180850154600280870154600388018054604080516020601f60001999851615610100029990990190931695909504968701829004820285018201905285845297986001600160a01b0385169860ff600160a01b870481169950600160a81b9096049095169650919491939091908301828280156110f95780601f106110ce576101008083540402835291602001916110f9565b820191906000526020600020905b8154815290600101906020018083116110dc57829003601f168201915b5050505050908060040154905087565b6000611113610e92565b6001600160a01b0316336001600160a01b0316146104f35760006104f6565b61113a6113f3565b6000546001600160a01b0390811691161461115457600080fd5b61115c61150d565b8181526001600160a01b038316602080830182905260006040808501829052600160608601524260c086015292815260058252919091208251805184936111a7928492910190611475565b50602082810151600183018054604086015160608701511515600160a81b0260ff60a81b19911515600160a01b0260ff60a01b196001600160a01b039096166001600160a01b0319909416939093179490941691909117169190911790556080830151600283015560a083015180516112269260038501920190611475565b5060c0919091015160049182015580546001810182556000919091528151805183926005027f8a35acfbc15ff81a39ae7d344fd709f28e8600b4aa8c65c6b64bfe7fe36bd19b019161127d91839160200190611475565b50602082810151600183018054604086015160608701511515600160a81b0260ff60a81b19911515600160a01b0260ff60a01b196001600160a01b039096166001600160a01b0319909416939093179490941691909117169190911790556080830151600283015560a083015180516112fc9260038501920190611475565b5060c091909101516004909101556003805460010190556040517fb9e5f9042e6c6eb94817f660cfa81afea9585e59d72bfc3348a2305cbd33e1339061134390859061186b565b60405180910390a1505050565b6113586113f3565b6000546001600160a01b0390811691161461137257600080fd5b6001600160a01b0381166113985760405162461bcd60e51b815260040161033390611a5a565b600080546040516001600160a01b03808516939216917f8be0079c531659141344cd1fd0a4f28419497f9722a3daafe3b4186f6b6457e091a3600080546001600160a01b0319166001600160a01b0392909216919091179055565b3390565b828054600181600116156101000203166002900490600052602060002090601f016020900481019282601f106114385782800160ff19823516178555611465565b82800160010185558215611465579182015b8281111561146557823582559160200191906001019061144a565b50611471929150611557565b5090565b828054600181600116156101000203166002900490600052602060002090601f016020900481019282601f106114b657805160ff1916838001178555611465565b82800160010185558215611465579182015b828111156114655782518255916020019190600101906114c8565b60405180608001604052806000815260200160608152602001600081526020016000151581525090565b6040518060e001604052806060815260200160006001600160a01b031681526020016000151581526020016000151581526020016000815260200160608152602001600081525090565b6104f991905b80821115611471576000815560010161155d565b600082601f830112611581578081fd5b813567ffffffffffffffff80821115611598578283fd5b604051601f8301601f1916810160200182811182821017156115b8578485fd5b6040528281529250828483016020018610156115d357600080fd5b8260208601602083013760006020848301015250505092915050565b600060208284031215611600578081fd5b81356001600160a01b0381168114611616578182fd5b9392505050565b6000806040838503121561162f578081fd5b82356001600160a01b0381168114611645578182fd5b9150602083013567ffffffffffffffff811115611660578182fd5b61166c85828601611571565b9150509250929050565b600060208284031215611687578081fd5b813561161681611cf1565b6000602082840312156116a3578081fd5b813567ffffffffffffffff8111156116b9578182fd5b6116c584828501611571565b949350505050565b6000602082840312156116de578081fd5b5035919050565b600080604083850312156116f7578182fd5b82359150602083013561170981611cf1565b809150509250929050565b600080600060408486031215611728578081fd5b83359250602084013567ffffffffffffffff80821115611746578283fd5b81860187601f820112611757578384fd5b8035925081831115611767578384fd5b876020848301011115611778578384fd5b949760209095019650909450505050565b60008282518085526020808601955080818302840101818601855b848110156117d257601f198684030189526117c0838351611820565b988401989250908301906001016117a4565b5090979650505050505050565b6000815180845260208401935060208301825b828110156118105781518652602095860195909101906001016117f2565b5093949350505050565b15159052565b60008151808452815b8181101561184557602081850181015186830182015201611829565b818111156118565782602083870101525b50601f01601f19169290920160200192915050565b6001600160a01b0391909116815260200190565b6000606082526118926060830186611789565b8281036020840152808551808352602083019150602087019250835b818110156118ce57835115158352602093840193909201916001016118ae565b505083810360408501526118e281866117df565b979650505050505050565b6000604082526119006040830185611789565b828103602084015261191281856117df565b95945050505050565b6000602080830181845280855180835260408601915060408482028701019250838701855b828110156119d257603f198886030184528151805160e0875261196660e0880182611820565b60018060a01b038984015116898901526040830151151560408901526060830151151560608901526080830151608089015260a0830151915087810360a08901526119b18183611820565b60c09384015198909301979097525094509285019290850190600101611940565b5092979650505050505050565b901515815260200190565b9115158252602082015260400190565b600060e08252611a0d60e083018a611820565b6001600160a01b0389166020840152871515604084015286151560608401526080830186905282810360a0840152611a458186611820565b9150508260c083015298975050505050505050565b60208082526026908201527f4f776e61626c653a206e6577206f776e657220697320746865207a65726f206160408201526564647265737360d01b606082015260800190565b60208082526013908201527210d85b991a59185d19481b9bdd08199bdd5b99606a1b604082015260600190565b60208082526015908201527424b73b30b634b210103b37ba329031b0b9ba32b21760591b604082015260600190565b6020808252600d908201526c1058d8d95cdcc811195b9a5959609a1b604082015260600190565b6020808252601a908201527f416464726573732068617320616c726561647920766f7465642e000000000000604082015260600190565b60208082526025908201527f53656c65637465642063616e64696461746520766f74696e67206973206e6f746040820152641037b832b760d91b606082015260800190565b60006020825282516020830152602083015160806040840152611bc560a0840182611820565b60408501516060850152606085015115156080850152809250505092915050565b60006020825260a082018354602084015260018401608060408501528281546001811660008114611c1e5760018114611c3f57611c7d565b611c2e607f600284041686611ca5565b60ff19831681526020019250611c7d565b60028204611c4d8187611ca5565b611c5686611cdf565b885b83811015611c7457815483820152600190910190602001611c58565b91909101945050505b505060028601546060860152611c966003870154611ceb565b9250611912608086018461181a565b90815260200190565b600085825260806020830152611cc76080830186611820565b60408301949094525090151560609091015292915050565b60009081526020902090565b60ff1690565b8015158114611cff57600080fd5b5056fea26469706673582212207ea308d94c4097c94bc7a79213ececa486e96084889b1aa083a72a73d5c9536564736f6c63430006000033",
  "source": "// SPDX-License-Identifier: MIT\npragma solidity ^0.6.0;\npragma experimental ABIEncoderV2;\n\nimport \"./Ownable.sol\";\n\n/// @title A voting contract\n/// @author Vinay Pallegar\n/// @notice You can use this contract for basic voting mechanisms\n/// @dev Only addresses added to the voterRegistry are able to interact\ncontract Voting is Ownable {\n\n    struct Candidate {\n        uint id;\n        string name;\n        uint voteCount;\n        bool open;\n    }\n\n    struct voter{\n        string voterName;\n        address voterAddress;\n        bool voted;\n        bool exists;\n        uint choiceId;\n        string choice;\n        uint timestamp;\n    }\n    \n    bool public stopped = false;\n\n    uint public totalCandidates = 0;\n    uint public totalVotes = 0;\n    uint public totalVoters = 0;\n\n    /** Contract owner */\n    voter[] private voterList;\n    \n    mapping(address => voter) public voterRegister;\n    mapping(uint => Candidate) public candidateLookup;\n\n\n    /// @notice Upon contract creation, add some default candidates/owner as user.\n\tconstructor() public {\n\n        addVoter(msg.sender, \"Admin\");\n\n    }\n\n    /// @notice Circuit breaker to stop any further votes from being added.\n    modifier stopInEmergency { \n        require(!stopped); \n        _; \n    }\n\n    /// @notice Only allows users within voterRegistry to access\n    modifier onlyUsers {\n        require(bytes(voterRegister[msg.sender].voterName).length != 0, \"Access Denied\");\n        _;\n    }\n\n    // Events\n    event voterAdded(address voter);\n    event votedEvent(uint indexed id);\n    event candidateAdded(uint indexed id);\n    event candidateVisibilityChange(Candidate candidate);\n\n    /// @notice Kill contract and remove from blockchain\n    /// @dev Uses Ownable contract\n    function kill() public onlyOwner {\n           if(msg.sender == owner()) selfdestruct(address(uint160(owner())));\n    }\n\n    /// @notice Changes Circuit Breaker status to stop voting/displaying candidates\n    /// @dev Changes state variable\n    /// @param _mode Set stopped to either true or false\n    function changeEmergencyMode(bool _mode) public onlyOwner {\n        stopped = _mode; \n    }   \n\n    /// @notice Check to see if user is the owner\n    function checkIsOwner() public view returns (bool) {\n        return msg.sender == owner() ? true : false;\n    }\n\n    /// @notice Add new candidate for voting\n    /// @dev Candidates could have a uniqueID created before pushing for better management\n    /// @param name The candidate name for display\n    function addCandidate(string memory name) public onlyOwner {\n        candidateLookup[totalCandidates] = Candidate(totalCandidates, name, 0, true);\n        totalCandidates++; \n        emit candidateAdded(totalCandidates);\n    }    \n\n    /// @notice Change candidate visiblity for voting\n    /// @param _id Candidate index #\n    /// @param _view Visbility\n    function changeCandidateVisibility(uint _id, bool _view) public onlyOwner returns (Candidate memory) {\n        require(bytes(candidateLookup[_id].name).length != 0, \"Candidate not found\");\n        candidateLookup[_id].open = _view;\n        emit candidateVisibilityChange(candidateLookup[_id]);\n        return candidateLookup[_id];\n    }\n\n    /// @notice Add address into system for access to voting\n    /// @dev Side-effects observed here\n    /// @param _voterAddress The address of the account to add\n    /// @param _voterName The friendly name of the account to add, ie firstname/lastname\n    function addVoter(address _voterAddress, string memory _voterName) public onlyOwner {\n        voter memory v;\n        v.voterName = _voterName;\n        v.voterAddress = _voterAddress;\n        v.voted = false;\n        v.exists = true;\n        v.timestamp = block.timestamp;\n        voterRegister[_voterAddress] = v;\n        voterList.push(v);\n        totalVoters++;\n        emit voterAdded(_voterAddress);\n    }\n\n    /// @notice Check to see if user is allowed to vote.\n    /// @return bool If user is allowed to access this voting system\n    function getUserVoteAccessInfo() external view returns (bool) {\n            return voterRegister[msg.sender].exists ? true : false;\n    }\n\n    /// @notice Check to see if user has already casted a vote\n    /// @dev ChoiceId is based on index of candidates\n    /// @return bool If has voted\n    /// @return uint ChoiceID of the selected vote\n    function getUserVotedInfo() external view returns (bool, uint) {\n        return (voterRegister[msg.sender].voted, voterRegister[msg.sender].voted ? voterRegister[msg.sender].choiceId : 0);\n    }\n\n    /// @notice Save vote by user\n    /// @dev choiceID is index of selected candidate\n    /// @param id Index of selected candidate\n    /// @param choice Friendly name of selected candidate\n    /// @return uint choiceId of selected candidate.\n    function doVote(uint id, string calldata choice) external stopInEmergency onlyUsers returns (uint) {\n        require (id >= 0 && id <= totalCandidates-1, \"Invalid  vote casted.\");\n        require (!voterRegister[msg.sender].voted, \"Address has already voted.\");\n        require (candidateLookup[id].open, \"Selected candidate voting is not open\");\n        \n        if (bytes(voterRegister[msg.sender].voterName).length != 0 && !voterRegister[msg.sender].voted){\n            voterRegister[msg.sender].voted = true;\n            voterRegister[msg.sender].choice = choice;\n            voterRegister[msg.sender].choiceId = id;\n            candidateLookup[id].voteCount++;\n            totalVotes++;\n        }\n        emit votedEvent(id);\n        return voterRegister[msg.sender].choiceId;\n    }\n\n    /// @notice Public view for showing all open:true candidates in system\n    /// @return string[] Candidate Names\n    /// @return uint[] Candidate Vote Totals\n    function viewAllCandidates() external view stopInEmergency onlyUsers returns (string[] memory, uint[] memory) {\n        string[] memory candidateNames = new string[](totalCandidates);\n        uint[] memory voteTotals = new uint[](totalCandidates);\n\n        for (uint i = 0; i < totalCandidates; i++) {\n            if (candidateLookup[i].open) {\n                candidateNames[i] = candidateLookup[i].name;\n                voteTotals[i] = candidateLookup[i].voteCount;\n            }\n        }\n\n        return (candidateNames, voteTotals);\n    }\n\n    /// @notice Public view for admins to get all candidates with status\n    /// @return string[] Candidate Names\n    /// @return bool[] Candidate Status\n    /// @return uint[] Candidate Vote Totals\n    function getAllCandidates() external view onlyOwner returns (string[] memory, bool[] memory, uint[] memory) {\n        string[] memory candidateNames = new string[](totalCandidates);\n        bool[] memory candidateStatus = new bool[](totalCandidates);\n        uint[] memory voteTotals = new uint[](totalCandidates);\n\n        for (uint i = 0; i < totalCandidates; i++) {\n                candidateNames[i] = candidateLookup[i].name;\n                candidateStatus[i] = candidateLookup[i].open;\n                voteTotals[i] = candidateLookup[i].voteCount;\n        }\n\n        return (candidateNames, candidateStatus, voteTotals);\n    }\n\n    /// @notice Public view for showing all users in the system for Admin only\n    /// @return voter[] User Name\n    function getAllVoters() public view onlyOwner returns (voter[] memory) {\n        return voterList;\n    }\n\n\n}\n",
  "sourcePath": "/Users/vinaypallegar/Desktop/localsite/blockchain-final-project/truffle/contracts/Voting.sol",
  "compiler": {
    "name": "solc",
    "version": "0.6.0+commit.26b70077.Emscripten.clang"
  },
  "schemaVersion": "3.2.5",
  "updatedAt": "2020-11-25T05:57:55.052Z",
  "networkType": "ethereum",
  "devdoc": {
    "author": "Vinay Pallegar",
    "details": "Only addresses added to the voterRegistry are able to interact",
    "methods": {
      "addCandidate(string)": {
        "details": "Candidates could have a uniqueID created before pushing for better management",
        "params": {
          "name": "The candidate name for display"
        }
      },
      "addVoter(address,string)": {
        "details": "Side-effects observed here",
        "params": {
          "_voterAddress": "The address of the account to add",
          "_voterName": "The friendly name of the account to add, ie firstname/lastname"
        }
      },
      "changeCandidateVisibility(uint256,bool)": {
        "params": {
          "_id": "Candidate index #",
          "_view": "Visbility"
        }
      },
      "changeEmergencyMode(bool)": {
        "details": "Changes state variable",
        "params": {
          "_mode": "Set stopped to either true or false"
        }
      },
      "doVote(uint256,string)": {
        "details": "choiceID is index of selected candidate",
        "params": {
          "choice": "Friendly name of selected candidate",
          "id": "Index of selected candidate"
        },
        "returns": {
          "_0": "uint choiceId of selected candidate."
        }
      },
      "getUserVotedInfo()": {
        "details": "ChoiceId is based on index of candidates",
        "returns": {
          "_0": "bool If has voted",
          "_1": "uint ChoiceID of the selected vote"
        }
      },
      "kill()": {
        "details": "Uses Ownable contract"
      },
      "owner()": {
        "details": "Returns the address of the current owner."
      },
      "renounceOwnership()": {
        "details": "Leaves the contract without owner. It will not be possible to call `onlyOwner` functions anymore. Can only be called by the current owner.     * NOTE: Renouncing ownership will leave the contract without an owner, thereby removing any functionality that is only available to the owner."
      },
      "transferOwnership(address)": {
        "details": "Transfers ownership of the contract to a new account (`newOwner`). Can only be called by the current owner."
      }
    },
    "title": "A voting contract"
  },
  "userdoc": {
    "methods": {
      "addCandidate(string)": {
        "notice": "Add new candidate for voting"
      },
      "addVoter(address,string)": {
        "notice": "Add address into system for access to voting"
      },
      "changeCandidateVisibility(uint256,bool)": {
        "notice": "Change candidate visiblity for voting"
      },
      "changeEmergencyMode(bool)": {
        "notice": "Changes Circuit Breaker status to stop voting/displaying candidates"
      },
      "checkIsOwner()": {
        "notice": "Check to see if user is the owner"
      },
      "constructor": "Upon contract creation, add some default candidates/owner as user.",
      "doVote(uint256,string)": {
        "notice": "Save vote by user"
      },
      "getAllCandidates()": {
        "notice": "Public view for admins to get all candidates with status"
      },
      "getAllVoters()": {
        "notice": "Public view for showing all users in the system for Admin only"
      },
      "getUserVoteAccessInfo()": {
        "notice": "Check to see if user is allowed to vote."
      },
      "getUserVotedInfo()": {
        "notice": "Check to see if user has already casted a vote"
      },
      "kill()": {
        "notice": "Kill contract and remove from blockchain"
      },
      "viewAllCandidates()": {
        "notice": "Public view for showing all open:true candidates in system"
      }
    },
    "notice": "You can use this contract for basic voting mechanisms"
  }
}